:020000040800F2
:1000000070070020C1010008932F000899280008FC
:10001000912F0008390C0008AD37000800000000DF
:10002000000000000000000000000000B72F0008E2
:10003000C50C000800000000B52F0008B92F00080B
:10004000DB010008DB010008DB010008DB01000820
:10005000DB010008DB010008DB010008DB01000810
:10006000DB010008DB010008DB0100083D0C000893
:10007000DB010008DB010008DB010008DB010008F0
:10008000DB010008DB010008DB010008DB010008E0
:10009000DB010008DB010008DB010008DB010008D0
:1000A000DB010008DB010008DB010008DB010008C0
:1000B000DB010008DB010008B9300008DB010008A3
:1000C000DB010008DB010008DB010008DB010008A0
:1000D000DB010008A1370008DB010008DB01000894
:1000E000DB010008DB010008DB010008DB01000880
:1000F000DB010008DB010008DB010008DB01000870
:10010000DB010008DB010008DB010008DB0100085F
:10011000DB010008DB010008DB010008DB0100084F
:10012000DB010008DB010008DB010008DB0100083F
:10013000DB010008DB010008DB010008DB0100082F
:10014000DB010008DB010008DB010008DB0100081F
:10015000DB010008DB010008DB010008DB0100080F
:10016000DB010008DB010008DB010008DB010008FF
:10017000DB010008DB010008DB01000800000000D3
:10018000DB010008DB010008DB010008DB010008DF
:10019000DB010008DB010008DB010008DB010008CF
:1001A000DB010008DB010008DB010008DFF80CD0F0
:1001B00000F04CFB00480047D137000870070020D2
:1001C0000648804706480047FEE7FEE7FEE7FEE7F1
:1001D000FEE7FEE7FEE7FEE7FEE7FEE76530000824
:1001E000AD0100082DE9F05F0546002092469B46D0
:1001F00088460646814640241BE02846414647463D
:10020000224600F06CFA53465A46C01A914110D368
:1002100011461846224600F053FA2D1A67EB0108E2
:100220004F4622460120002100F04AFA17EB000950
:100230004E41201EA4F10104DFDC484631462A4627
:100240004346BDE8F09F2DE9FE4F804681EA03005A
:10025000C00F0C46009021F0004123F00045B8EBA0
:100260000200A94105D24046214690461C460B4655
:10027000024623F00040104347D0270DC7F30A0081
:10028000C3F30A510290401A019040286BDAC3F37D
:10029000130040F4801B0098924620B10023D2EB5B
:1002A000030A63EB0B0B01985946C0F1400250461C
:1002B00000F006FA06460D4650465946019A00F0EF
:1002C0001EFA10EB08006141002487EA115284EA0B
:1002D000E7731A4340D0009A62B3019A012A4FEAA9
:1002E000075215DC001B61EB02014FF0004202EAED
:1002F0000752CDE90042001C41F5801132462B46E1
:1003000000F055FA03B0BDE8F08F40462146F9E70A
:10031000001B61EB0201001C41F5801300185B41DA
:100320002018A2F5001747EB030140EAD570B61973
:100330006D4111E06D084FEA360645EAC0754FEA97
:100340000752001B61EB0201001C41F580114908B6
:100350004FEA30000019514132462B4603B0BDE848
:10036000F04F00F015BA0098012240000023D0EBB6
:10037000020263EBE073009821464FEAE074B8EBA9
:10038000000061EB0401E9E783F000435BE781F0E3
:10039000004158E72DE9FE4F81EA030404F00044D0
:1003A00021F0004100944FF0000B23F0004350EA8D
:1003B00001045ED052EA03045BD0C3F30A54C1F3D4
:1003C0000A552C44A4F2F3340194A0FB0254C1F367
:1003D000130141F48011C3F3130343F4801301FBB1
:1003E000024400FB034E840A970A44EA815447EA18
:1003F0008357A4FB076802958D0A05FB07854FEA22
:10040000932C04FB0C542705029D4FEA065847EA3B
:100410001637B5EB08056EEB070C870E920E47EA10
:10042000811742EA8312A7FB0201B6EB0B0164EBD2
:1004300000042B0D43EA0C335E1844EB1C50DA46E3
:100440005146E7FB0201C5F313044FEA0B3343EABD
:1004500014534FEA0432019C43EA0603A4F10C044E
:100460000294009CCDE900B400F0A1F903B0BDE80E
:10047000F08F00200146F9E72DE9F04D81EA0304F1
:1004800004F0004B21F0004514464FF0000A23F021
:10049000004150EA050220D054EA01021DD0C5F304
:1004A0000A570246C5F31303C1F31300C1F30A56FA
:1004B00040F4801543F48013A7EB0608101BD646C2
:1004C00008F2FD3873EB050002D308F1010801E0E2
:1004D00092185B41B8F1000F03DA00200146BDE835
:1004E000F08D00204FF48011064684460EE0171B65
:1004F00073EB050705D3121B63EB050306434CEAB8
:10050000010C49084FEA300092185B4150EA01079C
:10051000EDD152EA030012D082EA040083EA050119
:10052000084305D0101BAB4106D20122002306E090
:1005300000224FF0004302E06FF0010253101AEB6B
:1005400006004CEB085110EB0A0041EB0B01BDE833
:10055000F04D00F01DB90EB5C10F80EAE0700844FF
:10056000CA07002140F233438DE80E000A460B46CD
:1005700000F01DF903B000BD0EB540F23341029109
:100580000021CDE900110A460B4600F010F903B036
:1005900000BD70B5C1F30A5201F000450024C1F35B
:1005A000130140F2FF3341F480119A4201DA002036
:1005B00070BD40F233439A42A2F2334203DC52420E
:1005C00000F08DF800E090402C43F1D0404270BD27
:1005D000C1F30A5210B5C1F3130140F2FF3341F4E5
:1005E00080119A4201DA002010BD40F233439A4252
:1005F000A2F2334203DC524200F071F810BD904089
:1006000010BD00F0004230F000400AD0C10D01F5ED
:100610006071C0F3160042EA0151C208400711435D
:10062000704700200146704730B5041E71F1000488
:1006300004DB4FF00044404264EB0101141E73F1EF
:10064000000405DB1C464FF00043524263EB0403F9
:100650008B4208BF824230BD30B5041E71F10004E8
:1006600004DB4FF00044404264EB0101141E73F1BF
:10067000000405DB1C464FF00043524263EB0403C9
:10068000994208BF904230BD01F0004330B421F0E0
:10069000004150EA010206D00A0DA2F56072C1F3D2
:1006A0001301002A02DC30BC00207047440F44EAEA
:1006B000C104C100E01830BC00EBC25000F031B8FA
:1006C000202A04DB203A00FA02F100207047914012
:1006D000C2F1200320FA03F3194390407047202A07
:1006E00004DB203A21FA02F00021704721FA02F3DC
:1006F000D040C2F120029140084319467047202A99
:1007000006DBCB17203A41FA02F043EAE07306E039
:1007100041FA02F3D040C2F1200291400843194649
:1007200070470029A8BF7047401C490008BF20F04F
:100730000100704710B4B0FA80FC00FA0CF050EAE7
:10074000010404BF10BC704749B1CCF1200421FA68
:1007500004F411FA0CF118BF012121430843A3EB63
:100760000C01CB1D4FEA00614FEA102042BF002070
:1007700010BC704700EBC35010440029A4BF10BC4C
:100780007047401C490008BF20F0010010BC7047B2
:1007900010B5141E73F1000408DA401C41F1000189
:1007A00092185B411A4301D120F0010010BD2DE9E0
:1007B000F04D92469B4611B1B1FA81F202E0B0FAD7
:1007C00080F220329046FFF77BFF04460F4640EA56
:1007D0000A0041EA0B0153465A46084313D011461A
:1007E00053EA010019D0C8F140025046FFF777FFE5
:1007F00005460E46504659464246FFF761FF0843FC
:1008000005D0012004E020463946BDE8F08D0020E7
:10081000054346EAE0762C4337430A986305E40A29
:10082000A0EB08000022FD0A44EA47540A3002D532
:1008300000200146E9E7010510196941DDE9084595
:1008400000196941BDE8F04DA2E70000064C074DD4
:1008500006E0E06840F0010394E807009847103490
:10086000AC42F6D3FFF7A6FC003A0008203A000895
:1008700030B50D4B00211C784518425C6D78AA42BA
:100880000FD1491C0329F7DB074A00210078521CCD
:10089000555CA84202D1E8B2187030BD491C052948
:1008A000F6DB204630BD000028000020B0F9000033
:1008B0007047000010B52DED068BB0EE409AF0EEBB
:1008C000609AB0EE418A9FED1BABF0EE618A53EC6B
:1008D0001A2B51EC190BFFF7BFFE51EC190B04D288
:1008E000FFF776FE0246002105E081F00041FFF7A8
:1008F0006FFE02460121002000F02EF853EC1A2B67
:1009000051EC180BFFF7A8FE51EC180B04D2FFF7BF
:100910005FFE0246002105E081F00041FFF758FE2E
:1009200002460121BDEC068B0120BDE8104000F01D
:1009300013B800000000000000000000010005D016
:10094000012802D102480068406A70470148FAE76E
:1009500038020020FC01002030B50B4C0025236834
:1009600028B1012802D159B1DD631A6430BD19B133
:100970005D632068826330BD5A632068856330BD43
:10098000DA631D6430BD0000B002002070B504467B
:100990002DED048B481CFFF7EFFD41EC180B1348BD
:1009A0000078FFF7E9FDE56B41EC190B2846FFF7EE
:1009B00028FE94ED021B53EC112BFFF7E8FC53ECDF
:1009C000192BFFF759FD53EC182BFFF7E3FC41EC13
:1009D000180B2846FFF715FE53EC182BFFF733FCD6
:1009E000FFF752FEE063BDEC048B70BD01000020F8
:1009F00000F8301BA0EC030A9FED070A00ED060A81
:100A000000ED080A00ED050A00ED040A80ED000A79
:100A100080ED010A704700000000000010B5044698
:100A20002DED028BB0EE408AF0EE608A9FED0B0B4D
:100A300051EC180B53EC102BFFF70EFE0AD251ECC1
:100A4000180B9FED080B53EC102BFFF7EDFD01D2B7
:100A500084ED048BBDEC028B10BD00000000000093
:100A60000088D3C0000000000088D34080ED020B56
:100A70007047000010B504462DED068B90ED041B69
:100A800090ED020B53EC112B51EC100BFFF77CFC9B
:100A9000FFF7FAFD00EE100A4A4984ED090A94EDC9
:100AA0000A1A10EE100A70EE410A8842C4ED060AD6
:100AB0000AD210EE100A4449884205DAD4ED071A2A
:100AC00071EE801AC4ED071A4049E069884203DDDF
:100AD000DFED3F1AC4ED071A3E49E069884203D9A9
:100AE000DFED3D1AC4ED071AC4ED080AD4ED0C1A67
:100AF00094ED072A61EE808AD4ED0D1A41EE828AC8
:100B0000D4ED0E1A84ED0B1A84ED0A0A94ED108AC6
:100B100041EEA08A18EE100AFFF773FD41EC190BA5
:100B20002E489FED2F0B90ED00AB51EC100B53ECCA
:100B30001A2BFFF729FC53EC192BFFF72BFC41EC88
:100B4000190B18EE900AFFF75CFD53EC1A2BFFF718
:100B500021FC53EC192BFFF776FBFFF795FD00EE18
:100B6000100A214984ED0F0A30EE480A10EE100AEF
:100B70009FED1E0A884202DCD4ED0F0A03E078EEF6
:100B8000000AC4ED0F0A70EEC80A194910EE900A67
:100B9000884203D938EE400A84ED0F0AE06B15490C
:100BA0002064884203DD9FED140A84ED0F0A134987
:100BB000E06B884203D99FED120A84ED0F0ABDEC69
:100BC000068B10BD000016C30000164300007A44D7
:100BD00000007A4400007AC400007AC4200000209B
:100BE000000000000000F03F0000C8430000C843C0
:100BF0000000C8C30000A0440000A0440000A0C43E
:100C00000000A0C410B50446014632230122094861
:100C100001F0E4FD32230422211D064801F0DEFD2F
:100C200004F108013223BDE810400422014801F01C
:100C3000D5BD0000EC020020FEE70000014800F0F6
:100C400055B800009C01002001681823CAB2103A70
:100C5000B2FBF3F2054B6FF30901032A9B5CC365FA
:100C600000D9091D8165084670470000E039000879
:100C700010B5014600208B698A6A4FF0C07453B1E9
:100C8000B3F5005F15D072B1012A0CD0022A0AD048
:100C9000032A09D104E01AB1012A06D0022A03D19D
:100CA000C96AC90100D5012010BDC96AA142FAD0A4
:100CB00010BD002AF7D0012AF2D0022AF3D0032A6D
:100CC000F3D010BD704790F83510022903D0802171
:100CD000416501207047052180F8351000680168E2
:100CE00021F0010101600020704700002DE9F84368
:100CF00004464FF00009CDF8009063484FF41651B8
:100D0000A56D0068B0FBF1F72E6894F85C10082020
:100D100000FA01F131420FD021680A6852070BD561
:100D20000A6822F004020A6094F85C108840A86007
:100D3000606D40F00100606594F85C104FF00108B0
:100D400008FA01F0304208D021684969090604D543
:100D5000A860606D40F00200606594F85C100420AB
:100D60008840304208D021680968890704D5A86006
:100D7000606D40F00400606594F85C1010208840BD
:100D8000304218D021680968090714D5A860206886
:100D90000168490304D50068000308D5A16C07E089
:100DA0000168C90503D4016821F008010160216CC4
:100DB00009B12046884794F85C10202088403042D2
:100DC00031D021680968C9062DD5A86094F835008E
:100DD00005282068016806D0490347D5006800034C
:100DE0001DD4616C1CE021F016010160206841698E
:100DF00021F080014161206C08B9A06C20B120680D
:100E0000016821F00801016094F85C103F208840DF
:100E1000A86084F8349084F83580216D1FE0E16B80
:100E200009B120468847606D00282BD0606DC0074F
:100E300014D0052084F835002068016821F00101F4
:100E400001600098401C0090B84203D820680068F8
:100E5000C007F6D184F8349084F83580E16C00291D
:100E600010D001B02046BDE8F04308470168C9052D
:100E7000D5D4016821F01001016084F8349084F821
:100E80003580CCE7BDE8F8833C0000202DE9F04137
:100E9000044600F063F906465CB1002584F834503E
:100EA000022084F835002068016821F0010101600A
:100EB0000DE00120BDE8F08100F050F9801B05280D
:100EC00005D920206065032084F83500F2E720680A
:100ED0000068C007F0D12268116820480140D4E9B9
:100EE00001031843D4E903363343184363691843B5
:100EF000A3691843E3691843236A18430843616AE6
:100F0000042903D1D4E90B13194308431060206866
:100F10004069666A20F0070130460E430127042825
:100F20000CD1A06A0643E06A40B12046FFF7A0FE5C
:100F300020B14020606584F83570BAE720684661CA
:100F40002046FFF781FE94F85C203F2191408160AC
:100F5000656584F835700020ACE700003F8010F034
:100F600070B5044600F0FAF80546601C02D004484B
:100F70000078044400F0F2F8401BA042FAD370BDA0
:100F8000300000202DE9F84FDFF890B100224FF03B
:100F900001084FF0030A4FF00F090BF1040E00BFD8
:100FA0000B6808FA02F42340A3426ED14D68022D6B
:100FB00001D0122D0ED1D50800EB850CDCF82050A5
:100FC0005607F70E09FA07F6B5430E69BE402E43E1
:100FD000CCF82060066855000F790AFA05FC07F086
:100FE000030726EA0C06AF40374307604E68012E20
:100FF00005D0022E03D0112E01D0122E0ED18768FB
:10100000CE6827EA0C07AE403E4386604668A6439A
:101010000C79C4F30014944034434460C4688E686F
:1010200024EA0C04AE402643C6604C68E4006FD549
:101030003B4C256845F480452560246822F0030573
:1010400004F480440094374C2E19D6F808489507CC
:101050002F0F09FA07F5AC43334DA84201D1002503
:101060002EE0324DA84201D1012529E0304DA842A1
:1010700001D1022524E02F4DA84201D103251FE014
:101080002D4DA84202D104251AE041E02B4DA84283
:1010900001D1052514E02A4DA84201D106250FE013
:1010A000284DA84201D107250AE0274DA84201D1C9
:1010B000082505E0254DA84201D1092500E00A25B3
:1010C000BD402543C6F80858DBF800405D464E6831
:1010D0009C43F60300D51C432C60DEF800407546A7
:1010E0004E689C43B60300D51C432C600B4D08355D
:1010F0002C684E689C43F60200D51C432C60074DBB
:101100000C352C684E689C43B60200D51C432C60FD
:10111000521C102AFFF444AFBDE8F88F003C014098
:101120004438024000300140000002400004024008
:1011300000080240000C024000100240001402406F
:1011400000180240001C024000200240002402401F
:101150000AB1816170470904FBE70000014880681B
:10116000704700003000002070B5040004D094F8EF
:101170003D00002510B106E0012070BD84F83C5010
:10118000204600F073F9242084F83D0020680168AF
:1011900021F00101016000F017FB33492268B0FB28
:1011A000F1F15160314A6368934206D94FF4967366
:1011B00059434FF47A73B1FBF3F12368491C196268
:1011C000616891420BD84900B0FBF1F2C2F30B0207
:1011D000042A01D2042019E0B0FBF1F016E0A36864
:1011E0009BB301EBC10202EB0112B0FBF2F242F43D
:1011F0008042120530D04BB301EBC10202EB01116A
:10120000B0FBF1F040F4804040F400402168C86138
:10121000D4E90701084321680860D4E903100843B2
:1012200021688860D4E9050108432168C860206806
:10123000016841F0010101602564202084F83D002F
:10124000256384F83E50002070BD00E006E001EB0D
:101250004102B0FBF2F2CCE70120D7E701EB4101FC
:10126000B0FBF1F0D0E7000040420F00A086010083
:101270002DE9FF4F83B09A46DDE911879346044676
:10128000DDF84090FFF76AFF054694F83D002028FE
:1012900074D11923012272492046009501F089FB7F
:1012A0000028F5D194F83C00012867D0012084F88B
:1012B0003C0020680168C90703D1016841F00101C1
:1012C00001602068016821F400610160222084F837
:1012D0003D00402084F83E0000262664C4F8249097
:1012E000A4F82A805F48E062608D2085CDE9007512
:1012F00053465A462046049901F0E3FA28B1206C7F
:1013000084F83C60042843D076E0208DC8B10128E1
:1013100020D00228206823D0416980690090208D68
:1013200003286BD801282AD04F4902283B464FF0AA
:10133000000200955BD08846204601F03AFBE8BBEE
:1013400040E02068416981690091016841F40071C1
:10135000016076E02068016821F480610160F0E7B7
:10136000016821F4806101602068016841F4006136
:101370000160206841698069009062E06EE02A4661
:101380003946204601F08AFB30B1206C202833D04A
:10139000012007B0BDE8F08F206847E020680168B1
:1013A00041F40071016020680169606A421C626258
:1013B0000170208D401E2085608D00E01CE0401EE5
:1013C0006085E9E72068016821F480610160206898
:1013D0000169606A421C62620170208D401E208596
:1013E000608D401E60853B460022414600952046A8
:1013F00001F0DFFA0028D1D00320CAE72A46394697
:10140000204601F04BFB0028BFD120680169606ACB
:10141000421C62620170208D401E2085608D401E3E
:10142000608520684169C94349070AD40169606A37
:10143000421C62620170208D401E2085608D401E1E
:101440006085208D00287FF46AAF202084F83D005D
:1014500084F83E6084F83C6000209AE7022098E718
:10146000020010000000FFFF0400010030B5054637
:1014700000681B4987B0884230D1C02000901220FC
:1014800001900120029003200390042004906946FB
:101490001448FFF777FD14480021026842F4001257
:1014A00002600068124C00F4001005900F482060A4
:1014B0004005C4E90101C013C4E903106161800162
:1014C000A161C4E9071020466162FFF7DFFC18B193
:1014D0006F2108A002F06BF9AC63A56307B030BDC3
:1014E00000540040000402404038024010600240B6
:1014F0009C0100202E2E2F436F72652F5372632F95
:101500006932632E6300000002488168027811444A
:1015100081607047300000200B4810B5016841F42D
:1015200000710160016841F480610160016841F46B
:1015300080710160032000F097F8002000F006F8A9
:1015400000F024F8002010BD003C024070B50D4DA5
:1015500004464FF47A712878B1FBF0F00A49096823
:10156000B1FBF0F000F01DFB48B9102C07D20022AF
:101570002146501E00F058F800206C6070BD01201C
:1015800070BD0000300000203C0000201F4808B55E
:10159000016841F480410160006800F480400090DF
:1015A0001A48001F016841F080510160006800F096
:1015B00080500090032000F057F8002211466FF091
:1015C0000B0000F031F8002211466FF00A0000F025
:1015D0002BF8002211466FF0090000F025F80022D8
:1015E0001146501F00F020F800221146101F00F095
:1015F0001BF800221146901E00F016F80022BDE8EC
:1016000008401146501E00F00FB800004438024058
:1016100000F01F02012191404009800000F1E0200C
:10162000C0F8001170470000F0B40E4B1B680C4668
:10163000C3F30223C3F10705042D00D90425191DA6
:10164000072901D2002300E0DB1E012606FA05F17E
:10165000491E214099409E40761E16403143F0BC01
:1016600001F098BC0CED00E0064900F007020868A4
:101670004FF6FF03184040EA0220034A1043086077
:10168000704700000CED00E00000FA052DE9F0477E
:101690000E46050065D0DFF81481D8F80000F7B2D7
:1016A00000F00F00B04207D288F80070D8F80000B0
:1016B00000F00F00B04254D128683D4C810712D58C
:1016C000400703D5206840F4E050206028780007E8
:1016D00003D5206840F4604020602068A96820F0AD
:1016E000F000084320602878C0072DD03049686892
:1016F0000839012812D0022813D0032811D0096814
:10170000890700292DDA216821F0030101432160B6
:10171000FFF724FD814641F2883A0EE0096889030B
:10172000EFE709688901ECE7FFF718FDA0EB090175
:10173000514502D90320BDE8F0872068696800F0B0
:101740000C00B0EB810FEFD1D8F80010404601F04B
:101750000F01B14207D90770006800F00F00B042D6
:1017600001D00120E7E72878400705D52068E9681F
:1017700020F4E050084320602878000706D5206850
:10178000296920F4604040EAC100206000F03CF884
:101790002168084AC1F30311515CC840064908603A
:1017A0000020FFF7D3FE0020C5E70000003C024008
:1017B00008380240E83900083C0000200148006871
:1017C000704700003C000020044805490068096893
:1017D000044AC1F38221515CC84070473C0000209C
:1017E00008380240F83900080448054900680968CB
:1017F000044AC1F34231515CC84070473C000020AC
:1018000008380240F8390008154810B5006810F093
:101810000C02144813D01449042A0FD0082A0ED100
:101820000F4C241F2268236802F03F025B0207D599
:101830002068C0F38810A0FB010106E0084610BD37
:101840002168C1F38811A1FB00010023FEF7CAFC47
:101850002168C1F30141491C4900B0FBF1F010BD02
:10186000083802400024F40040787D012DE9F84F4B
:10187000050076D02878DFF8F8B2BE4CC00749D012
:10188000DBF800105846C1F38101012908D0006837
:10189000C0F3810002280AD1201D0068400206D54D
:1018A0002068800336D568680028E2D032E0686896
:1018B000B0F5803F10D0B0F5A02F206810D020F4F4
:1018C00080302060206820F4802020606868A0B10B
:1018D000FFF744FC06460CE0206840F48030F4E753
:1018E00040F480202060F7E7FFF738FC801B642875
:1018F00073D820688003F7D50CE0FFF72FFC06466D
:1019000005E000BFFFF72AFC801B6428F0D82068A0
:101910008003F7D42878DFF8608280074FF0000951
:101920003ED5DBF80010584611F00C0F09D00068C6
:10193000C0F3810002280BD18D48001F00684002CF
:1019400006D42068800715D5E868012809D111E080
:10195000E868B8B10120C8F80000FFF7FFFB0646B1
:1019600005E002E1FFF7FAFB801B0228C0D82068DF
:101970008007F7D52068296920F0F80040EAC10007
:1019800020600DE0C8F80090FFF7E8FB064604E091
:10199000FFF7E4FB801B02281FD820688007F7D4DC
:1019A0002878000722D5724E744869696C3671B187
:1019B00001210160FFF7D2FB074604E0FFF7CEFBF1
:1019C000C01B022809D830688007F7D50EE0C0F8A0
:1019D0000090FFF7C3FB074605E083E0FFF7BEFB7F
:1019E000C01B02287ED830688007F7D428784007CB
:1019F00068D5DFF87CA100270AF1380ADAF8000080
:101A0000C0000BD4DAF8001041F08051CAF8001081
:101A1000DAF80000012700F080500090584E30683E
:101A2000C00510D4306840F480703060FFF796FB3A
:101A3000009005E0FFF792FB0099401A022851D868
:101A40003068C005F6D54A4EA868683601280FD020
:101A50000528306810D020F001003060306820F098
:101A600004003060A868B8B1FFF778FB00900FE081
:101A7000306840F00100F4E740F004003060F7E720
:101A8000FFF76CFB0099411A41F28830814264D81B
:101A900030688007F4D50EE0FFF760FB009007E0A8
:101AA000FFF75CFB0099411A41F28830814254D81B
:101AB00030688007F4D42FB1DAF8001021F080519B
:101AC000CAF80010A869C0B3DBF80010C1F38101A7
:101AD00002294AD00228484607D0C8F86000FFF71C
:101AE0003DFB00E039E005463AE04746C8F86000B3
:101AF000FFF734FB064604E0FFF730FB801B0228AB
:101B00002BD820688001F7D4D5E907010843A96ADA
:101B10001C4A490802EB01416A6A41EA8211084302
:101B200095F82C1040EA01611148001F0160012066
:101B30003866FFF713FB054605E014E0FFF70EFBE0
:101B4000401B022809D820688001F7D50BE000BFB0
:101B5000FFF704FB401B022802D90320BDE8F88FE1
:101B600020688001F4D40020F8E70120F6E70000A7
:101B7000083802400038024000004742800E4742C9
:101B8000007000400000FFFF4FF0E02104280869CA
:101B900003D020F004000861704740F00400FAE729
:101BA000704710B5401EB0F1807F01D3012010BDF9
:101BB0004FF0E02460610F21601701F0EBF9002085
:101BC000A06107202061002010BD10B5FFF7E8FFDD
:101BD00010BD7047704710B590F83820012A25D005
:101BE000012280F83820CA688C6822F440722243AF
:101BF0004C6822F4806222430C6822F40062224383
:101C00000C6922F4805222434C6922F40052224390
:101C10008C6922F48042224322F4004102680023AE
:101C20002143516480F83830002010BD022010BDDF
:101C300030B590F83820012A20D0012280F83820D1
:101C4000022380F8393003685C6824F070045C601B
:101C500003685C680D682C435C6003689C6824F032
:101C600080049C6003689C6849680C439C6080F811
:101C70003920002180F83810084630BD022030BDE0
:101C800010B5040003D094F8390010B107E001202A
:101C900010BD002084F83800204600F00DF8022026
:101CA00084F83900211D206801F00CFA012084F825
:101CB0003900002010BD000008B500680B498842BB
:101CC00012D10B48016841F0040101600068002254
:101CD00000F00400009011461E20FFF7A5FCBDE8AF
:101CE00008401E20FFF794BC08BD0000000800401B
:101CF000403802400168CA6842F00102CA600068C8
:101D0000016841F0010101600020704770B5044690
:101D100090F83800012817D0012584F838500220A7
:101D200084F839002068826822F0770222F47F422A
:101D300082600868502837D00DDC202859D005DC97
:101D400088B3102841D151E0022070BD302853D013
:101D500040283AD13FE060282ED070280BD0B0F553
:101D6000805F03D0B0F5005F2FD110E0206881685C
:101D700021F0070115E0CB68D1E90121206801F0CD
:101D80000CFA2168886840F0770088601DE0CB6815
:101D9000D1E90121206801F000FA2068816841F44E
:101DA0008041816011E01EE0CA684968206801F046
:101DB000BDFA5021206806E0CA684968206801F031
:101DC000C6FA6021206801F0F2F984F83950002049
:101DD00084F8380070BDCA684968206801F0A6FA26
:101DE00040212068EFE700212068ECE710212068FF
:101DF000E9E720212068E6E730212068E3E72DE9C4
:101E0000F0410D46040003D094F8390018B108E001
:101E10000120BDE8F081002084F83800204600F061
:101E200039F8022084F839002068816821F0070120
:101E30008160211D206801F045F922689068916950
:101E4000166A2B68AF69034340F20330814341EACD
:101E50000721A868EF6908434FF6FC418843E96809
:101E600040EA0720014328692F6A000140EA073051
:101E7000084369686D6926F0AA0646EA05152943F4
:101E800093602268906120680162012084F8390023
:101E90000020BEE770B5026800241C4902251C48DA
:101EA00086B0B2F1804F15D01A4B9A4210D10A6811
:101EB00042F002020A60096801F002010591C021A6
:101EC0000091CDE901546946CDE90345FFF75AF881
:101ED00006B070BD0A6842F001020A600968012676
:101EE00001F00101059120210091CDE90154CDE9D6
:101EF00003466946FFF746F808200090CDE90154F3
:101F0000CDE9034669460448E0E700004038024056
:101F100000000240000400400004024010B50446E6
:101F2000006891B1042904D00122002101F02AF9AE
:101F3000206801225FF0040101F024F920680168A3
:101F400041F001010160002010BD01220021F3E7F2
:101F5000704770B50446006801694FF00005C94339
:101F6000890715D4C168C943890711D4E91E0161E5
:101F700001202076206880698007204602D0FFF784
:101F8000E7FF04E000F0B2F8204600F047F92576BC
:101F900020680169C943490717D4C168C943490783
:101FA00013D46FF00401016102202076206880695B
:101FB00010F4407F204602D0FFF7CAFF04E000F093
:101FC00095F8204600F02AF9257620680169C94372
:101FD000090716D4C168C943090712D46FF0080174
:101FE0000161042020762068C0698007204602D065
:101FF000FFF7AEFF04E000F079F8204600F00EF99C
:10200000257620680169C943C90617D4C168C94348
:10201000C90613D46FF010010161082020762068F2
:10202000C06910F4407F204602D0FFF791FF04E022
:1020300000F05CF8204600F0F1F825762068016990
:10204000C943C90708D1C168C943C90704D1891E5A
:102050000161204600F000F920680169C9430906C2
:1020600009D4C168C943090605D46FF08001016134
:102070002046FFF7AEFD20680169C943490609D42F
:10208000C168C943490605D46FF04001016120468B
:1020900000F018FA20680169C94389060BD4C168A9
:1020A000C943890607D46FF0200101612046BDE8CD
:1020B0007040FFF78FBD70BD00B50068094985B05D
:1020C00088420DD14FF470700090022001900020E2
:1020D000029003900320049069460348FEF752FFE4
:1020E00005B000BD0004014000080240704770B513
:1020F000044690F838000D4601280DD0012684F8DA
:102100003860022084F8390042B1042A18D0082A25
:102110002AD00C2A4DD139E0022070BD206801F090
:102120004FF82068816941F0080181612068816968
:1021300021F004018161206881692A69114311E05D
:10214000206801F069F82068816941F400618161CB
:102150002068816921F480618161206881692A6930
:1021600041EA0221816124E0206801F087F82068BB
:10217000C16941F00801C1612068C16921F0040111
:10218000C1612068C1692A69114311E0206801F02A
:10219000A5F82068C16941F40061C1612068C16986
:1021A00021F48061C1612068C1692A6941EA022184
:1021B000C16184F83960002084F8380070BD10B522
:1021C000040003D094F8390010B107E0012010BDDD
:1021D000002084F83800204600F00CF8022084F833
:1021E0003900211D206800F06DFF012084F83900BE
:1021F000002010BD08B500680649884208D106488D
:10220000016841F002010160006800F002000090E6
:1022100008BD00000004014044380240704700003F
:1022200010B504460068012200F0ACFF08492068A0
:10223000884202D00749884203D1416C41F40041F1
:1022400041642068016841F001010160002010BD77
:1022500000000140000401402DE9F05F91492DED9F
:10226000068B006888427DD18F4C2068FEF773F999
:1022700041EC100B8D48FEF7F9FB6068FEF76BF937
:1022800041EC100B894848308346FEF7EFFBA4F180
:102290001008864E98F80010103E98F801009FED47
:1022A000848B9FED85AB06F1C80404F110058142D3
:1022B0007DD14FF06409B9FBF1F04746FEF75CF9B8
:1022C00041EC190B0020FEF739FBFEF755F996EDAE
:1022D000001BB24653EC112BFEF756F853EC192BAA
:1022E000FEF758F8C4E900013978B9FBF1F0FEF7C0
:1022F00043F941EC190B0120FEF720FBFEF73CF9F6
:1023000096ED021B53EC112BFEF73EF853EC192B04
:10231000FEF740F8C4E9020194ED000B53EC182BD2
:1023200051EC100BFEF798F90CD294ED000B53EC26
:102330001A2B51EC100BFEF777F903D294ED000B3A
:1023400085ED000B94ED020B53EC182B51EC100BA8
:10235000FEF782F90ED294ED020B53EC1A2B51ECDE
:10236000100B00E099E0FEF75FF903D294ED020B49
:1023700085ED020BD7ED018AB7EE000AB84630EEC4
:10238000688A18EE100AFEF73CF9484FD83797EDE7
:10239000001B53EC112BFDF7FDFF41EC190B18EE60
:1023A000900AFEF72EF9A94695ED001B00E055E0D6
:1023B00053EC112BFDF7EEFF53EC192BFDF743FF08
:1023C000054607F110040E46C4E9005118EE100A44
:1023D000FEF717F997ED021B53EC112BFDF7DAFF0F
:1023E00041EC190B18EE900AFEF70BF999ED021B60
:1023F00053EC112BFDF7CEFF53EC192BFDF723FF08
:10240000C4E90201C7E90201C7E900560020FEF74E
:1024100095FAFEF7B1F85546C5E900010120FEF72F
:102420008DFAFEF7A9F8C5E9020194ED000B1F48EB
:10243000FEF7F4FA94ED020B5846FEF7EFFA1B484C
:10244000FEF718FB5846FEF715FB17490422091F33
:102450001B4800F03DF9002188F80010444698F828
:1024600000101248FEF792FA21785846FEF78EFACD
:102470000E4DD5F88400FEF7C4F841EC180BE86B5C
:10248000FEF7BFF841EC100BB0EE481AF0EE681AF8
:10249000FEF710FA2078401C2070BDEC068BBDE8DA
:1024A000F09F0000000800401000002050000020B5
:1024B000000000000088D3C0000000000088D34066
:1024C000EC0200207047704770B50268044610683F
:1024D000D168536910F00F0F50D003F0010501F4DB
:1024E000907635435DD0C20705D0CA0503D5E26BAF
:1024F00042F00102E263420705D5DA0703D0E26B3E
:1025000042F00202E263820705D5DA0703D0E26BEC
:1025100042F00402E263020705D5DA0703D0E26B5A
:1025200042F00802E263E26B002A33D0800604D551
:10253000880602D5204600F032FF20684069E16B32
:10254000C0F38010090700D428B3204600F019FF1B
:102550002068416949061AD5416921F0400141616D
:10256000606BA0B11B490165606BFEF7ACFB0028F6
:1025700010D0606B016DBDE870400847830610D530
:102580008B060ED52046BDE8704000F008BF2046FF
:10259000FFF799FF70BD2046FFF795FF0020E0632D
:1025A00070BD030606D50B0604D52046BDE8704075
:1025B00001F092B84006F3D54806F1D5D16820461F
:1025C00021F04001D160202184F8391000F063F936
:1025D00070BD00007333000870B5040004D094F897
:1025E0003900002510B106E0012070BD84F8385094
:1025F000204600F023F8242084F839002068C168C0
:1026000021F40051C160204600F010FF20680169EC
:1026100021F4904101612068416921F02A01416162
:102620002068C16841F40051C160E563202084F84E
:10263000390084F83A00002070BD0000F0B51F4A50
:10264000016802240125032607271D4887B091420F
:1026500018D11C490A6842F010020A60096801F0AA
:102660001001059171028DE8F2006946FEF78AFCBF
:10267000002211462520FEF7D7FF2520FEF7C8FFD0
:1026800007B0F0BD104A9142FAD10E49091F0A68FD
:1026900042F400320A60096801F400310591082112
:1026A0008DE8F2006946FEF76DFC20208DE8F10010
:1026B00069460648FEF766FCE2E7000000100140AC
:1026C000000002404438024000440040000C024038
:1026D00090F83A30202B1DD1D1B1CAB190F83830E2
:1026E000012B17D081628285C2850021C16322221D
:1026F00080F83A2080F8381001684A6942F00102F7
:102700004A610068C16841F49071C160002070475F
:10271000012070470220704770B52D492DED028BC6
:102720000068884250D12B48FEF7A2F8294C241D9E
:10273000A4F1100105280ED2DFE800F003051628E9
:102740003400002005E091ED060B51EC100BFDF775
:1027500020FF206060600422BDEC028B1D49BDE8B3
:1027600070401D48FFF7B4BF91ED060B51EC100B04
:1027700081F000410E4646EC100B054651EC100B63
:10278000FDF707FF46EC105B206018E091ED068B2B
:1027900051EC180B81F00041FDF7FBFE206051EC7D
:1027A000180B0EE091ED068B51EC180BFDF7F1FEC6
:1027B000206051EC180B81F0004141EC100B51EC02
:1027C000100BFDF7E6FEC5E7BDEC028B70BD000007
:1027D000001001400C000020EC0200202DE9F8431D
:1027E000044690F839001F4616460D46202850D161
:1027F000A5B19EB194F8380001284AD0012084F890
:1028000038004FF00008C4F83C80212084F83900DB
:10281000FEF7A4FCA6848146E68426E00120BDE8FC
:10282000F883E08C401EE084A0684B46B0F5805FE2
:102830004FF000024FF080012046009703D000F0D7
:102840007CFFE8B90DE000F078FFC8B9288821685E
:10285000C0F308004860206908B16D1C05E0AD1C9C
:1028600003E0216815F8010B4860E08C0028D8D1FE
:102870004B46002240212046009700F05EFF08B141
:102880000320CCE7202084F8390084F83880002029
:10289000C5E70220C3E77047FEE701684A69D243F3
:1028A00052050CD46FF480624A6104210164002156
:1028B00040F8301F2022427301730120704700202E
:1028C00070472DE9F84F0446006889460B9D016862
:1028D0009846174641F4806101602068016841F420
:1028E0008071016000954FF0011A00225146204688
:1028F0000A9B00F05EF8F0BB216809F0FE00086159
:102900000AF1010B2B46594620460A9A00F082F83C
:1029100018B1206C042812D03AE02068416980691F
:1029200000902A4620460A9900F0E9F850B1206C40
:1029300004282DD12068016841F400710160012054
:10294000BDE8F88FFEB2B8F1010F09D02168380A4E
:1029500008612A4620460A9900F0D1F80028E6D1FD
:10296000206806612A4620460A9900F0C8F8002827
:10297000DDD1206800E00BE0016841F48071016066
:1029800000950022514620460A9B00F012F808B13B
:102990000320D5E7216809F0FF0040F0010008613D
:1029A0002B46594620460A9A00F034F80028B0D148
:1029B000C6E72DE9F0471E4690460D460446C1F392
:1029C0000747DDF8209012E0701C10D02EB1FEF702
:1029D000C5FBA0EB0900B04209D9002044F8300F34
:1029E00020216173A07320730320BDE8F087206865
:1029F000012F0AD0806925EA00000004000C06D0EF
:102A000000214145E0D00020EFE74069F3E70121D4
:102A1000F7E700002DE9F0479A4691460D46044637
:102A200000264FF02008C1F307472AE020684069DC
:102A3000C043400512D42068016841F40071016070
:102A400021686FF48060486104202064266384F864
:102A50003D8084F83C600120BDE8F087B9F1FF3F7C
:102A60000FD0B9F1000F05D0FEF778FBA0EB0A01FB
:102A7000494506D944F8306F84F80D802673032049
:102A8000EAE72068012F07D0D0F8180025EA0000F7
:102A90000004000CE0D0C9E74069F7E72DE9F041F8
:102AA000002590460E460446202721E04069C04399
:102AB000C0060CD421686FF01000486125642563BE
:102AC00084F83D7084F83C500120BDE8F0812EB1BF
:102AD000FEF744FBA0EB0800B04209D954F8400FC0
:102AE00040F0200044F80409677025700320ECE7EB
:102AF00020684169C9434906D8D40020E5E770B58C
:102B000016460D4604461AE02046FFF7C6FE08B1F9
:102B1000012070BD681C12D025B1FEF71FFB801B81
:102B2000A8420CD954F8400F40F0200044F8100996
:102B300000202060202161732073032070BD206875
:102B40004069C0430006DFD4002070BD094808B5C5
:102B5000016841F4001101600068002200F40010D7
:102B6000009011460B20FEF75FFDBDE808400B20EA
:102B7000FEF74EBD303802402DE9F0472E4886B0B2
:102B80000024016841F001010160016801F00101C8
:102B90000591016841F040010160016801F04001C8
:102BA0000591016841F004010160016801F0040130
:102BB0000591016841F008010160016801F0080118
:102BC0000591016841F0020101600068DFF86C8046
:102BD00000F002000590012208214046FEF7B8FAF5
:102BE0000122DFF85C90170339464846FEF7B0FA39
:102BF000DFF850A0012204215046FEF7A9FA082070
:102C00001125012603948DE8610069464046FEF7D0
:102C1000B9F9CDE90264CDE9007569464846FEF789
:102C2000B1F9042003948DE8610069465046FEF72F
:102C3000A9F906B0BDE8F08730380240001802401C
:102C400000080240000C02400E4810B50C4901601B
:102C50000D49416000214FF480428160C0E90312B8
:102C600041618161C1610162FEF77EFA002805D0F1
:102C7000BDE81040442105A000F099BD10BD000042
:102C80000054004048010020A08601002E2E2F4352
:102C90006F72652F5372632F6932632E63000000D9
:102CA00010B517488CB04FF080410160032100241B
:102CB000C0E901144FF6FF72C0E90324009101201E
:102CC000CDE9014003940494CDE905400794694699
:102CD0000B480894FFF793F818B14C2109A000F0B5
:102CE00066FD099409A906480A94FEF7A1FF002889
:102CF00003D0532103A000F05AFD0CB010BD00001A
:102D0000FC0100202E2E2F436F72652F5372632F0C
:102D100074696D2E6300000010B517488CB015491A
:102D2000016003210024C0E901144FF6FF72C0E9DD
:102D3000032400910120CDE9014003940494CDE9DE
:102D40000540079469460C480894FFF758F818B1F5
:102D50006D210AA000F02BFD099409A906480A94E8
:102D6000FEF766FF002803D0742104A000F01FFDC9
:102D70000CB010BD00040040380200202E2E2F435E
:102D80006F72652F5372632F74696D2E630000009C
:102D900010B5174886B0154901601F210024C0E90D
:102DA000011442F20F71C0E90314FEF769FF18B174
:102DB000852110A000F0FBFC4FF480500090694684
:102DC0000B48FEF7A3FF18B18B210AA000F0EFFC1F
:102DD000049404A906480594FEF72AFF002803D0AE
:102DE000922104A000F0E3FC06B010BD00080040F2
:102DF000740200202E2E2F436F72652F5372632FA3
:102E000074696D2E6300000010B5334890B03149ED
:102E10000024C0E9001440F23F61C0E902410461AE
:102E20004461FFF7CCF918B1A5212CA000F0BFFC3C
:102E30000E940EA928480F94FEF7FAFE18B1AC21A3
:102E400026A000F0B4FC6020CDE9000402940394B5
:102E500004940594002269461F480694FFF747F939
:102E600018B1B8211DA000F0A2FC042269461A483E
:102E7000FFF73DF918B1BD2118A000F098FC082219
:102E800069461548FFF733F918B1C22113A000F0C5
:102E90008EFC0C2269461048FFF729F918B1C721AA
:102EA0000EA000F084FC0794089409944FF400509D
:102EB0000A94CDE90B4007A907480D94FEF78BFE55
:102EC00018B1D32105A000F072FC0348FFF7F4F815
:102ED00010B010BD00040140B00200202E2E2F4380
:102EE0006F72652F5372632F74696D2E630000003B
:102EF0000D4810B50B4901604FF4E13141600021EC
:102F000081600C22C160C0E904128161C161FFF7D8
:102F100063FB002805D0BDE81040432103A000F06A
:102F200046BC10BD00100140EC0200202E2E2F43A5
:102F30006F72652F5372632F75736172742E630005
:102F40000D4810B50B4901604FF4E131416000219B
:102F500081600C22C160C0E904128161C161FFF788
:102F60003BFB002805D0BDE81040562103A000F02F
:102F70001EBC10BD004400402C0300202E2E2F4309
:102F80006F72652F5372632F75736172742E6300B5
:102F9000FEE770470907090E002806DA00F00F0067
:102FA00000F1E02080F8141D704700F1E02080F867
:102FB000001470477047704710B5FEF7A5FABDE8DA
:102FC0001040FEF702BE000030B5244893B0002444
:102FD000016841F080510160006800F0805011905C
:102FE0001F48016821F4404141F4804101600068BC
:102FF000022500F44040119001200390102004901D
:10300000009506950820CDE907404020CDE9090547
:1030100004200B906846FEF729FC00B1FEE70F2064
:10302000CDE90C058020CDE90E0401210CA81094F7
:10303000FEF72CFB00B1FEE7FEF7C0FB4FF47A7100
:10304000B0FBF1F0FEF7ADFD0420FEF79DFD002280
:103050001146501EFEF7E8FA13B030BD403802406A
:10306000007000401048016841F4700101600F4891
:10307000016841F0010101600C4A00210832116031
:1030800002680B4B1A400260031D0A4A1A6002686C
:1030900022F48022026005480C3001600249580683
:1030A000803908607047000088ED00E00038024079
:1030B000FFFFF6FE103000240148FEF74ABF000073
:1030C00074020020F0B50268234B244D244E254F96
:1030D000254C4FF0804C984209D0604507D0A8425B
:1030E00005D0B04203D0B84201D0A04204D122F0B2
:1030F000700E4A6842EA0E0298421BD0604519D011
:10310000A84217D0B04215D0B84213D0A04211D077
:10311000164DA8420ED0164DA8420BD0154DA84210
:1031200008D0154DA84205D0144DA84202D0144D28
:10313000A84203D122F44075CA682A4302608A6813
:10314000C2620A688262984201D0A04201D1096934
:10315000016301214161F0BD000001400004004015
:1031600000080040000C0040000401400040014005
:10317000004401400048014000180040001C00408D
:103180000020004010B50123046A8B409C43046278
:10319000036A8A401343036210BD10B5846842EA93
:1031A000032224F47F440A432243826010BD8268D4
:1031B00022F070020A4342F007018160704700006C
:1031C00030B5026A22F001020262026A4368846931
:1031D0000D6824F07304254322F002048A68224318
:1031E0000B4CA04202D00B4CA0420BD122F00804A1
:1031F000CA6823F4407322434C6922F004021C4342
:103200008B6923434360856149684163026230BD35
:10321000000001400004014030B5026A22F01002B3
:103220000262026A436884690D6824F4E64444EA51
:1032300005248D6822F0200242EA05120D4DA842B5
:1032400002D00D4DA8420ED1CD6822F0800242EA94
:1032500005124D6923F4406343EA85038D6922F02A
:10326000400243EA850343608461496881630262E6
:1032700030BD0000000001400004014030B5026A8A
:1032800022F480720262036A4268C46923F4007304
:1032900024F073050C682C438D6843EA05230D4D1B
:1032A000A84202D00C4DA8420ED1CD6823F4006391
:1032B00043EA05234D6922F4405242EA05128D6922
:1032C00023F4806342EA05124260C4614968C16325
:1032D000036230BD000001400004014030B5026AC5
:1032E00022F480520262046A4268C3690D6823F4C2
:1032F000E64343EA05238D6824F4005444EA053488
:10330000084DA84202D0084DA84204D14D6922F4CC
:10331000804242EA85124260C361496801640462E6
:1033200030BD0000000001400004014010B5036AF8
:10333000046A24F001040462846924F0F00444EA7D
:10334000021423F00A020A438461026210BD10B520
:10335000036A23F0100303628369046A23F4704351
:1033600043EA023224F0A00343EA011182610162C0
:1033700010BD10B5806B0021C185C184FFF7A3F893
:1033800010BD0168CA6822F49072CA6001684A6977
:1033900022F001024A61202180F83A10704710B5EE
:1033A00090F83A10222901D0022010BD8168B1F5B1
:1033B000805F11D00169002901681FD0496801F0C0
:1033C0007F03816A4A1C82620B70C18D491E090409
:1033D000090CC18518D026E00269816A002A0268BA
:1033E000526805D0D2B20A80816A491C8162ECE73A
:1033F000C2F308020A80816A891CF7E74A68816A79
:103400004B1C83620A70E0E70168CA6822F490727C
:10341000CA6001684A6922F001024A61202180F8ED
:103420003A10FFF779F9002010BD00002DE9F041B6
:1034300004460068016921F44052E16811430161CA
:103440002168C86849F20C6290432369A268E56963
:103450001A4363692B431A430243CA6021684869CF
:1034600020F44072A06910434861E1696425B1F518
:10347000004F9748974A21684FF032083FD0914259
:1034800001D081427CD1FEF7AFF900EBC00101EB26
:10349000001061688900B0FBF1F6FEF7A5F900EBBA
:1034A000C00101EB001061688900B0FBF1F0B0FBD6
:1034B000F5F06FF01801484306EB800108EB0110AE
:1034C000B0FBF5F000F0F006FEF78EF900EBC0015E
:1034D00001EB001061688900B0FBF1F0B0FBF5F082
:1034E00006EB0016FEF780F900EBC00101EB0010BF
:1034F00061688900B0FBF1F7FEF776F9D2E09142FE
:1035000001D081423DD1FEF76FF900EBC00101EB24
:10351000001061684900B0FBF1F0B0FBF5F0060166
:10352000FEF762F900EBC00101EB00106168490091
:10353000B0FBF1F7FEF758F900EBC00101EB00100A
:1035400061684900B0FBF1F0B0FBF5F06FF01801D5
:10355000484307EB800108EBC100B0FBF5F000F039
:10356000F80006EB4006FEF73FF900EBC00101EB67
:10357000001061684900B0FBF1F7FEF735F93CE057
:1035800055E0FEF721F900EBC00101EB0010616886
:103590004900B0FBF1F0B0FBF5F00601FEF714F9BD
:1035A00000EBC00101EB001061684900B0FBF1F7CE
:1035B000FEF70AF900EBC00101EB00106168490059
:1035C000B0FBF1F0B0FBF5F06FF01801484307EBEA
:1035D000800108EBC100B0FBF5F000F0F80006EB4D
:1035E0004006FEF7F1F800EBC00101EB0010616846
:1035F0004900B0FBF1F7FEF7E7F800EBC00101EB83
:10360000001061684900B0FBF1F0B0FBF5F06FF01D
:103610001801484307EB800108EBC100B0FBF5F04F
:1036200000F00700216830448860BDE8F081FEF7B3
:10363000CBF800EBC00101EB001061688900B0FB22
:10364000F1F6FEF7C1F800EBC00101EB0010616874
:103650008900B0FBF1F0B0FBF5F06FF018014843C2
:1036600006EB800108EB0110B0FBF5F000F0F0066E
:10367000FEF7AAF800EBC00101EB001061688900B9
:10368000B0FBF1F0B0FBF5F006EB0016FEF79CF88E
:1036900000EBC00101EB001061688900B0FBF1F79D
:1036A000FEF792F800EBC00101EB001061688900A1
:1036B000B0FBF1F0B0FBF5F06FF01801484307EBF9
:1036C000800108EB0110B0FBF5F000F00F00A9E756
:1036D000001401400010014090F83910212901D058
:1036E000022070478168B1F5805F016A0BD04A1CE7
:1036F0000262026809785160C18C491E0904090CF4
:10370000C1840ED017E009880268C1F30801516036
:1037100001690029016A02D0491C0162ECE7891C99
:10372000FBE70168CA6822F08002CA600068C168CD
:1037300041F04001C160002070472DE9F0419846FA
:1037400017460E460446069D1DE0681C1BD02DB191
:10375000FDF704FDA0EB0800A84214D92068C16859
:1037600021F4D071C1602068416921F001014161FB
:10377000202084F8390084F83A00002084F83800CA
:103780000320BDE8F0812068006836EA000004D01C
:103790000020B842D9D00020F3E70120F9E700006B
:1037A0000148FEF791BE0000EC020020FEE7FEE7B4
:1037B00002E008C8121F08C1002AFAD170477047FA
:1037C000002001E001C1121F002AFBD17047000058
:1037D0002DED108B84B0FDF79FFEFFF7F5FBFFF793
:1037E000CBF9FFF7B3F9FFF783FBFFF72DFAFFF7EC
:1037F000A7FBFFF709FBFFF78FFAFFF751FAFFF777
:10380000C7FA18215C48FEF789FB0520FDF7A8FBE5
:1038100018215A48FEF782FB5948FEF76BFA00213F
:103820005848FEF7FDFC04215648FEF7F9FC082134
:103830005448FEF7F5FC0C215248FEF7F1FC9FEDD1
:10384000528AF7EE000AB1EE040AB0EE481A0021DF
:103850004E48FDF7CDF84D48B0EE481AF7EE000A95
:10386000B1EE040A01214830FDF7C2F80A20FDF745
:1038700077FB012211034648FDF76AFC0022042170
:103880004448FDF765FC042243494448FEF720FF05
:103890003E4D4FF0180890354FF001094FF0320AB5
:1038A00005F10A0B9FED3E9A3B4FDFED3E9A9FEDEF
:1038B0003EFA9FED3E8B05F118049FED3EAB9FED68
:1038C0003FBB0C3F04F120069FED3ECB9FED3FDB5D
:1038D0009FED40EB8DE8200501233422A0213F48D5
:1038E000FDF7C6FC5846FCF7E1FF00EE100AF8EEC3
:1038F000C00A80EE890A60EE290A80EE8F0A10EE77
:10390000100AFCF77EFE53EC182BFCF743FDFCF786
:10391000BBFEB86084F80090A06096EC040B51ECFC
:10392000100B53EC112BFCF78EFCFCF7ADFEFCF7F3
:1039300068FE53EC1A2BFCF79FFD53EC1B2BFCF796
:103940009BFD53EC1C2BFCF725FD53EC1D2BFCF7CA
:1039500021FD53EC182BFCF71DFD53EC1E2BFCF73F
:103960008BFDFCF791FE60600848A830FDF74AF92E
:103970006420FDF7F5FAADE738020020FC010020D5
:1039800074020020B0020020CDCC8C3F50000020FB
:1039900000080240000C02400C000020EC02002055
:1039A000004CFF460000FA4400003443894160E5C2
:1039B000D02209400000000000002A400000000062
:1039C00000804940000000000000E03F00000000CF
:1039D00000405F4000000000008066404801002079
:1039E000000610160006101600000000000000007F
:1039F0000102030406070809000000000102030495
:103A0000203A00080000002040000000B037000805
:103A1000603A00084000002030070000C03700086E
:103A200000060000EC51383E0000000000000000DD
:103A300000000000000000000000000000C0724014
:103A4000333333333333E33F000001020304000018
:103A50000100000010000000000000000024F4003D
:04000005080001AD41
:00000001FF
